:020000040007F3
:10A000001854002059A5070061A5070063A50700A3
:10A0100065A5070067A5070069A507000000000007
:10A0200000000000000000000000000015A4070070
:10A030006DA50700000000006FA5070071A50700CF
:10A0400073A5070073A5070073A5070073A5070094
:10A0500073A5070073A5070073A5070073A5070084
:10A0600073A5070073A5070073A5070073A5070074
:10A0700073A5070073A5070073A5070073A5070064
:10A0800073A50700C5A6070073A5070073A5070001
:10A09000E9A6070073A50700EDA6070073A5070052
:10A0A00073A5070073A5070073A5070073A5070034
:10A0B00073A5070073A50700000000000000000062
:10A0C00073A5070073A5070073A5070073A5070014
:10A0D00073A5070073A5070073A507000000000023
:10A0E0000000000000000000000000000000000070
:10A0F0000000000000000000000000000000000060
:10A10000000000000000000000000000000000004F
:10A11000000000000000000000000000000000003F
:10A40000DFF80CD000F0ECF800480047C5CA0700A0
:10A41000185400206FF00200704502D1EFF309815B
:10A4200001E0EFF30881886902380078004A10479C
:10A4300005A60700401E00BF00BF00BF00BF00BF51
:10A4400000BF00BF00BF00BF00BF00BF00BF00BF14
:10A4500000BF00BF00BF00BF00BF00BF00BF00BF04
:10A4600000BF00BF00BF00BF00BF00BF00BF00BFF4
:10A4700000BF00BF00BF00BF00BF00BF00BF00BFE4
:10A4800000BF00BF00BF00BF00BF00BF00BF00BFD4
:10A4900000BF00BF00BF00BF00BF00BF00BF00BFC4
:10A4A00000BF00BF00BFC5D170470000401E00BF05
:10A4B00000BF00BF00BF00BF00BF00BF00BF00BFA4
:10A4C00000BF00BF00BF00BF00BF00BF00BF00BF94
:10A4D00000BF00BF00BF00BF00BF00BF00BF00BF84
:10A4E00000BF00BF00BF00BF00BF00BF00BF00BF74
:10A4F00000BF00BF00BF00BF00BF00BF00BF00BF64
:10A5000000BF00BF00BF00BF00BF00BF00BF00BF53
:10A5100000BF00BF00BF00BF00BF00BF00BFC5D16C
:10A5200070470000056885F308884068FF2464B21E
:10A53000EFF30585002D01D1A646004725460646C6
:10A5400021273FBAF0B40024002500260027F0B4EC
:10A55000F92040B2004700000648804706480047FF
:10A56000FEE7FEE7FEE7FEE7FEE7FEE7FEE7FEE7C3
:10A57000FEE7FEE711A7070001A4070040EA010378
:10A580009B0703D009E008C9121F08C0042AFAD2A9
:10A5900003E011F8013B00F8013B521EF9D270476D
:10A5A000D2B201E000F8012B491EFBD27047002215
:10A5B000F6E710B513460A4604461946FFF7F0FFC2
:10A5C000204610BD30B504460020034600E05B1C69
:10A5D000934203D2E05CCD5C401BF8D030BD00005C
:10A5E000064C074D06E0E06840F0010394E80700E0
:10A5F00098471034AC42F6D3FFF706FFF8D80700AF
:10A6000018D9070010B50C4610B10120086010BD24
:10A61000216891B11148421A814213D03C2A0ED2CE
:10A6200001223C3011F13C0111F8013900F80139E7
:10A630001346521C3C2BF7D904E00E200BE03C22C1
:10A64000FFF79CFF00223C21044801F045FA034932
:10A65000891E08800020206010BD000082FF0020BD
:10A6600000F01F02012191404009800000F1E0202C
:10A67000C0F88012704700F01F020121914040098C
:10A68000800000F1E020C0F80011704700F01F02C8
:10A69000012191404009800000F1E020C0F8001243
:10A6A00070474907090E002806DA00F00F0000F194
:10A6B000E02080F8141D704700F1E02080F80014BD
:10A6C0007047000007480021C0F84011C0F844114D
:10A6D000C0F84811C0F84C11C0F80011C0F80411BE
:10A6E00002F098BF0010014002F030BF074810B5DB
:10A6F000406830B18047002807D0BDE8104000F026
:10A7000047BBBDE8104002F0A3B810BDB42C002038
:10A7100070B58D480023021D0178101D0124062903
:10A7200007D115782D0704D10578C5F30315032D3E
:10A7300002D0062904D00FE0854E844D75670EE0E7
:10A7400015782D0708D10578C5F30315032D06D01C
:10A75000042D04D0052D02D0062909D010E04FF0B9
:10A760008055D5F844527B4EC5F34235356002E042
:10A7700015782D0704D10578C5F30315032D02D0F4
:10A78000062906D011E0744D2E6826F080762E60E2
:10A790000EE015782D0708D10578C5F30315032DB4
:10A7A00006D0042D04D0052D02D006290AD011E0D0
:10A7B0004FF08045C5F80C31C5F81031654D2D1F9F
:10A7C0002B6002E015782D0704D10578C5F3031539
:10A7D000032D02D0062905D00CE05E4A0321643225
:10A7E00011600AE015782D0704D10578C5F303152B
:10A7F000032D02D006290DD06AE0584A05211160C8
:10A80000564978310C60554908310B603F21121DC3
:10A81000116002E0117809075AD10078C0F30310E3
:10A82000052855D14E4800684E4908604C48001D27
:10A830000068091D08604A4808300068091D086062
:10A8400047480C300068091D086045481030006812
:10A85000091D0860424814300068091D086040481E
:10A86000183000683F49203108603D481C300068BE
:10A87000091D08603A4820300068091D0860384802
:10A8800024300068091D0860354828300068091D1B
:10A89000086033482C300068091D086030483030AB
:10A8A00000683049403108602D4834300068091D87
:10A8B00008602B4838300068091D086028483C3083
:10A8C0000068091D0860264840300068091D0860BE
:10A8D00021487438016841F470010160BFF34F8F63
:10A8E000BFF36F8F4FF01021D1F80002002803DB77
:10A8F000D1F80402002822DA1B4A14601B480468BD
:10A90000002CFCD01524C1F800420568002DFCD0B5
:10A91000C1F8044201680029FCD0136001680029D5
:10A92000FCD0BFF34F8F0C48F0380168104A01F497
:10A93000E06111430160BFF34F8F00BFFDE70E4997
:10A940000C48086070BD0000E00F00F00DF0ADBADB
:10A9500000C007403C050040FCED00E01056004000
:10A960000404001020C5004004E5014000E401405B
:10A970000400FA050090D003C82C002002E008C8AB
:10A98000121F08C1002AFAD170477047002001E069
:10A9900001C1121F002AFBD170472DE9FC5F002581
:10A9A000168807461580406B14468946A8464FF026
:10A9B0000C0A11234FF0020B98B101784846032E80
:10A9C00048D380F800B02288521C92B2228083546F
:10A9D0002288521C92B2228009F802102088401C62
:10A9E00020803A6BDAB12088494600F11205B54261
:10A9F00030D80B5420881023401C80B220800B5488
:10AA00002088401C20800F202388155C401ECD54D8
:10AA1000238840B25B1C23800028F5DA454697F86E
:10AA20002E0030B133462246494601F05DFF050055
:10AA300011D197F82D0030B132462146484600F03A
:10AA40001DFC050007D1B87820B32088C846001D3A
:10AA5000B04202D95046BDE8FC9F684679DF002825
:10AA6000F9D12188032008F8010020881921401C11
:10AA700080B2208008F800102088401C80B220801E
:10AA800000EB0801BDF8000002F006FE0146208838
:10AA900008442080F878B8B1228897F90310D31CB5
:10AAA0004846B342D6D800F802B022880123521C8F
:10AAB00092B2228083542288521C92B2228009F8DA
:10AAC00002102088401C20807868B8B1218890F955
:10AAD0000020CB1C4846B342BCD800F801B0218806
:10AAE0000A23491C89B2218043542188491C89B218
:10AAF000218009F801202088401C2080388950B12D
:10AB0000CDE900464B460622022107F1080002F07B
:10AB100034FE05009FD1388A50B1CDE900464B463E
:10AB20000722032107F1100002F027FE050092D151
:10AB3000388B50B1CDE900464B461522142107F160
:10AB4000180002F01AFE050085D1386A30B133468C
:10AB50002246494600F04CFF0500DBD1786A30B14F
:10AB600033462246494602F025F80500D2D197F82F
:10AB70002C0038B1334622464946384602F000FCE4
:10AB80000500C7D1387838B13346224649463846A1
:10AB900002F042F80500BDD128465CE710B5044636
:10ABA000114890B0382180798DF83A0041F2305048
:10ABB000ADF838006846FFF7FAFC02208DF8000077
:10ABC00000208DF802000120ADF808000EA80390C7
:10ABD0008DF803400021684600F0A8FA002801D053
:10ABE00000F0D6F810B010BD643200202DE9F0431B
:10ABF000284C8BB0A078002838D118212648FFF7C0
:10AC0000D6FCA046E078244C00254FF02809012608
:10AC100078B304F148070095019502951022694622
:10AC2000F81D0395FFF7CEFC20B3F81DCDE908070A
:10AC300009A8049008A806908DF814608DF81C608F
:10AC40000420FFF7ABFF25700220207204A8E0600B
:10AC5000A4F810906582104873DF08B100F098F8EE
:10AC60000E494FF40030086088F802600BB0BDE870
:10AC7000F08307E00520FFF791FF267067602572DB
:10AC80002582E7E70620FFF789FF257065602572BA
:10AC9000DEE700008C2C00204C3200200C05005018
:10ACA0002DE9FF410546087A0E4681070AD00322A6
:10ACB0001146284600F012FC002801D000F068F888
:10ACC000BDE8FF812849009001F06CFD010011D121
:10ACD000254C7168143C009A6069FFF74FFC00989E
:10ACE00001F02CFD010005D169461F4801F036FD39
:10ACF000010003D0284601F0B7F8E1E704200190F5
:10AD00000098800802906069039001A801F076F82D
:10AD100007000BD0092F10D0606901F0D9FC0100A9
:10AD200002D0284601F0A0F83946E3E7307A2169DD
:10AD3000084420616069A061C2E7307A216901445A
:10AD4000216160780028BBD06089401E0004000C9F
:10AD50006081B5D1284600F089FB08B100F018F8F1
:10AD600020896081ACE70000A02C0020BFF34F8F4A
:10AD700005480168054A01F4E06111430160BFF331
:10AD80004F8F00BFFDE700000CED00E00400FA0566
:10AD90000EB500210091CDE901106A4644F2010090
:10ADA000FFF7E4FF0EBD000038B50C46064BE26825
:10ADB000097853F8225062680092024604F10C00B0
:10ADC0006369A84738BD00005C31002070B50F4BA7
:10ADD000054605201C785E78A64216D01C781878A7
:10ADE0009E88B04201DA401C00E0002018705E88A6
:10ADF000D86804FB06002860986800EBC4039B88B1
:10AE00000B8050F834001060002070BD242C00200E
:10AE10002DE9F84F254C8146924660880E468142C6
:10AE200041D800274FF6FF788DF80070684600F093
:10AE30003FF922786078A188884201DA401C00E05E
:10AE40000020C0B2904204D19DF8000000F054F9F7
:10AE500027E065786078884201DA401C00E0002035
:10AE600060709DF8000000F047F9454519D0A068D2
:10AE7000B9F1000F40F835A00DD066B16188E068E7
:10AE8000324605FB01004946FFF778FBA06800EB5E
:10AE9000C500868002E000EBC50087800020BDE889
:10AEA000F88F0420FBE70920F9E70000242C00209C
:10AEB0000EB504E0029ABDF804100098904702AA6B
:10AEC00001A96846FFF782FF0028F3D00EBD0000FD
:10AED00030B5CB0008339DB293074FF0000401D08A
:10AEE000072030BD044B9A602A44DA605C701C7005
:10AEF00058809980002030BD242C0020074B9B688F
:10AF000023B12AB120B10068037C1BB1082070472F
:10AF1000072070474174426100207047342C0020A4
:10AF200010B50446082902D00020FFF731FFD4E90C
:10AF30000010BDE8104008471CB5044ACDE90001E7
:10AF400008216846FFF764FF1CBD000021AF070021
:10AF50002DE9F0478046994614460F4690074FF07A
:10AF6000000634D11C4D8CB302F054F90320C5F80F
:10AF70001490287004F11800002107EB4703AC601F
:10AF800004EBC102491C167056709770506000EBBC
:10AF9000C3000329F4DBEE606E70AE701420FFF77F
:10AFA0005FFB06211420FFF77CFB1420FFF763FBF7
:10AFB0000A49C1F8008006211120FFF772FB0748FB
:10AFC000001F006828610020BDE8F08701E007202D
:10AFD000FAE7AE60FBE70000342C002008150140C2
:10AFE0002DE9F843DFF870900D461746D9F80810A0
:10AFF000044651B34CB3052D02D20720BDE8F883B7
:10B00000606910B3607C012821D0002602F082FB29
:10B01000D9F80810804601EBC800694602F099FB98
:10B02000B8B1012100F8041B0C4910C0096880E880
:10B03000E200D9F8081001EBC8009DF8001041703B
:10B040001420FFF723FB0020D8E70820D6E72E4680
:10B05000DCE70420D2E70000342C00200415014076
:10B06000F8B5124E0446B168E1B1DCB16069C8B10F
:10B070000027277402F04EFB0546B068694600EBD6
:10B08000C50002F066FB78B1022101704460B0682F
:10B090009DF8001000EBC50041701420FFF7F6FA90
:10B0A0003846F8BD0820F8BD0420F8BD342C002037
:10B0B00030B5EFF3108172B60D4A9468012324B1C4
:10B0C0000370002900D162B630BD93604FF0E023D9
:10B0D000D3F88051074C25401560C3F88041D3F860
:10B0E000844154605A17C3F8842100220270E8E7B3
:10B0F0000C340020FC06FFBC0B498A68002A11D0E2
:10B1000000280FD1EFF3108072B60B684FF0E022E9
:10B11000C2F800314B68C2F8043100228A6000286E
:10B1200000D162B6704700000C340020F0B50C4628
:10B1300093B01F210726ADF80010ADF804100027CA
:10B1400050B1C17849070DD56A4602A9FFF725FC21
:10B15000002808D102AD02E00025ADF800706CB106
:10B16000E07810B1304613B0F0BD01AA0AA920461C
:10B17000FFF713FC0028F6D10AAA02E00022ADF87E
:10B180000470BDF80400C3B2BDF80000C1B2284687
:10B1900072DFE8E770B5054601461C220F48FFF74D
:10B1A000EDF90F4C00262670286830B10168616007
:10B1B0004068A060201D7ADF02E00948001D7BDFA7
:10B1C00000280AD14FF6FF7060806670BDE87040BD
:10B1D000044A00210448FFF791BE70BD4C300020A6
:10B1E000002C0020B5D6070080D8070070B51E4C93
:10B1F000068800251B49E289102E15D01B4B112E05
:10B200001CD0122E29D0502E17D130F8061F914293
:10B2100013D14189022910D1007B10F0010F11D008
:10B22000BDE8704000F02ABC83884B808369CB6006
:10B23000C06908614D70002AF2D070BD4FF6FF70F2
:10B2400048804D701868FFF70BFF0028F5D0A16902
:10B250000029F2D0BDE8704008478268CA60C06823
:10B260000861DDE7002C00204C30002080D807006A
:10B2700001480068FFF7F4BE80D807007CB505469A
:10B2800008880C460930904201D90C207CBD6846E4
:10B2900071DF0028FAD121880820685420881B21FA
:10B2A000401C80B2208029542088401C80B220801D
:10B2B0002844DDF801100160BDF805108180208868
:10B2C000801D80B220809DF8001001B10121295419
:10B2D0002088401C208000207CBD0000F0B585B097
:10B2E0000A4605002FD02888A0F57F41FF392CD0D1
:10B2F0001748007848B3164C1020641C01272070B2
:10B3000007206070A7700320ADF810000026E11C34
:10B31000104602F0C6F9BDF8101000960844ADF8CA
:10B320001000019602960396288AADF8000004A842
:10B33000CDE902048DF80270ADF8046028886946F2
:10B34000A6DF05B0F0BD0E20FBE70820F9E70000FE
:10B35000142C002030B585B00D46040039D0BDB3A3
:10B360006868A8B31C4B4FF6FF7020800FCB0DF11F
:10B37000040C8CE80F0041F23050ADF8000001A839
:10B38000811E63DF002821D1221D69460120A0DF34
:10B3900000281BD19DF80200A071204600F08EFE0F
:10B3A000002813D1204600F0DAFC00280ED12946EF
:10B3B000204600F013FF002808D16868A062A86842
:10B3C00000B1E062054901200870002005B030BDE1
:10B3D000FFE70E20FAE7000084D80700142C0020B5
:10B3E0003EB500283CD000293AD0826A002A37D0E6
:10B3F0000A88102A23D0112A33D0502A21D0512A6A
:10B400002ED104460A4611F8060F022828D1488892
:10B41000238A984224D1907B042821D006281FD06B
:10B4200005281DD02046891C01F030FD002817D0CA
:10B43000E16A002914D003B0BDE83040084789888C
:10B4400011E0CA8803899A420AD108228DF80020A7
:10B450000A7C12318DF808200191826A6946904772
:10B460003EBD4FF6FF7101803EBD0000F0B585B0D6
:10B470000A4605002BD02888A0F57F41FF3928D047
:10B480001548007828B3144C1120641C0127207043
:10B490000026ADF81070611C104602F002F9BDF8EC
:10B4A000101000960844ADF810000196029603961D
:10B4B000288AADF8000004A8CDE902048DF80270D6
:10B4C000ADF8046028886946A6DF05B0F0BD0E20FF
:10B4D000FBE70820F9E70000142C002030B585B008
:10B4E00028B30388A3F57F44FF3C22D0124B1B787E
:10B4F000FBB1114B10255B1C00241D7059709A7014
:10B5000001250321ADF810100094019402940394D6
:10B51000018AADF8001004A9CDE902138DF802509C
:10B52000ADF8044000886946A6DF05B030BD0E20A6
:10B53000FBE70820F9E70000142C002010B50446B2
:10B54000FFF754FE21460448FFF74AFF2046BDE8B6
:10B55000104001F0E5BB00006432002030B51C490A
:10B560008BB00A1D0DF1140C3CCA8CE83C00096834
:10B57000099120B105A818DF08B1FFF709FC4FF4C5
:10B58000F42013DF08B1FFF703FC124B48221249E5
:10B5900009A801F075FF08B1FFF7FAFB01216A461F
:10B5A000084601F047FF08B1FFF7F2FB01208DF8D4
:10B5B0000C00684601F034FF08B1FFF7E9FB0748CB
:10B5C00001F078FF002801D0FFF7E2FB0BB030BD9F
:10B5D0006CD807006DD40700942E002049D50700D1
:10B5E00070B511DF08B1FFF7D3FB4FF0E021002069
:10B5F000D1F800315FF0010404FA00F21A420AD0D7
:10B6000042B202F01F0504FA05F15209920002F15C
:10B61000E022C2F88011401C2028EDD34FF44054A2
:10B62000A06813DF08B1FFF7B3FBA068BDE8704066
:10B6300000F010B908B5684600F00EF900980178DE
:10B64000A52904D00079AA2801D0002008BD012036
:10B6500008BD10B500F04EFE18B900F0DBFA002866
:10B6600013D0642001F026FB00F007FE08B1FFF7BD
:10B670008FFB00F03FFE08B1FFF78AFB00F0A4FA51
:10B68000041E01D0FFF784FB204610BD00B587B033
:10B690001422084901A8FEF771FF05980DF1040C6A
:10B6A00000909CE80F0000F01BF802F0CDF807B006
:10B6B000002000BDA0D8070010B500F021FC002834
:10B6C0000BD100F027FF044602F0BEF8034910201A
:10B6D0000860024910390860204610BD1805005066
:10B6E0002DE9F84304460E4617461D466846DDF828
:10B6F000208000F0B1F814F0FF024FEA14412F4C03
:10B700002F484FF001034FF0FF0C10D0012A14D046
:10B71000032A23D00021022A2DD0052A3FD0042A53
:10B7200044D0062A01D104202070BDE8F88341806E
:10B730008560037080F804C00BE04180F119294452
:10B740008160A521017080F804C0C0F81880C6602F
:10B750000EE023701A4800F065F8E6E700990A78D1
:10B7600002704A88428089688160AA210171C6609E
:10B77000C0E90475EDE7009A1578A52D0AD005708B
:10B78000558845809268826080F804C0C16001617C
:10B790004161DEE74180816080F800C0F4E700F09D
:10B7A00095FE08B1FFF7F4FA0320BDE74180816000
:10B7B00080F800C0009909790171CBE7542C002072
:10B7C000683100200EB5084A07CA8DE8070001F06D
:10B7D00087FC002806D105494FF4FE2048606846E2
:10B7E00001F09EFC0EBD000094D80700582C0020EC
:10B7F00038B50446684600F02FF8009800782070AD
:10B8000000984088608000988168A160017921716A
:10B81000C168E16001692161416961618069A0617C
:10B8200038BD000010B504461C21094801F04EFC4B
:10B8300008B1FFF7ADFA00231C222146044801F0AD
:10B8400083FC002803D0BDE81040FFF7A1BA10BD6B
:10B85000582C0020FEF766BE0149016070470000C9
:10B8600000F0070070B5174C0F20217801EB410163
:10B8700004EBC1021449536912F8045F4968012DB1
:10B880000ED0032D0BD14FF08050006980B2B3FB76
:10B89000F0F0084428DF002801D10121A17070BD1B
:10B8A0000803516856690D1A3118926818441044FB
:10B8B000B5F5805F02D2AA0829DFECE74FF4806279
:10B8C00029DFE8E7683000201C2C002000EB400254
:10B8D0000548002100EBC200032201718160C0E92C
:10B8E00004218161C1607047683000202DE9F0417A
:10B8F000134C069E65780A2D1FD027783D44EDB283
:10B900000A2D01D30A3DEDB205EB450504EBC50553
:10B910002871AA61D1E90001C5E90401C5E902362F
:10B92000A178002021B9FFF79DFF112800D1002048
:10B930006178491C6170BDE8F0810420FBE70000DC
:10B94000683000202DE9F05F2648C168F1B3DFF8C8
:10B9500098B00E688146DBF800400769C078E11BAB
:10B9600021F07F45ED1CB0B9DFF880804FF48030C6
:10B97000C8F84403C8F804031120FEF771FE112033
:10B98000FEF779FE4FF0010AC8F800A02F20FEF75D
:10B990008DFD89F803A0B54200D23546124BE81957
:10B9A0003C3320F07F401860DBF800105A46091B3A
:10B9B00021F07F41001B20F07F40C91C81420FD93C
:10B9C000106818602F20FEF771FD00E004E0BDE86C
:10B9D000F05F1120FEF75ABEBDE8F05F01F01ABC1F
:10B9E000BDE8F09F342C00200415014000100140F8
:10B9F0002DE9F04117880646B81D14460D469842B9
:10BA000002D90C20BDE8F0813188072206290AD32B
:10BA10004FF4486C4FF6FF73614501D9994202D14A
:10BA20007088062801D21046ECE7604501D998429B
:10BA3000F9D1994203D0984201D08142F3D8052030
:10BA4000E85520881221401C80B22080295420888B
:10BA5000401C80B220804119308801F01DFE2188F1
:10BA6000084480B220804119708801F015FE2188B9
:10BA7000084420800020C5E7FFF78AB9F8B51348CD
:10BA800000F01EFF114D0026114C0C3D30B16169D4
:10BA9000B9B101208DF80000684611E0287820B186
:10BAA000616971B18DF80060F6E7687858B1A168F6
:10BAB000084800220068FFF793FA10B1A16901B1AC
:10BAC00088472E70F8BD6168F2E700000C2C00205A
:10BAD0004C30002080D8070010B5044612B1108801
:10BAE000002211E04FF6FF70FAE7030A43EA002351
:10BAF000A05C5840C0F30313584080EA003080B285
:10BB0000C3B280EA4310521C8A42EED310BD00003B
:10BB100030B5164C87B01648E16801F0D7FA08B185
:10BB2000FFF736F91248E268083800234168083008
:10BB300001F00AFB050015D1142101A8FEF737FD1D
:10BB400000208DF804000A480DF1040C203880888C
:10BB5000ADF80600E0680490059800909CE80F009E
:10BB6000FFF7BEFD07B0284630BD0000A43100201D
:10BB7000802C0020032161F3070008B50549064B1E
:10BB8000898861F31F400ECB0094FFF7A9FD0020C8
:10BB900008BD0000602C0020A8310020012138B52C
:10BBA00061F307000649074B898861F31F404FF492
:10BBB00040518C680ECB0094FFF792FD002038BDF9
:10BBC000602C0020A831002000B58BB004A8FFF73E
:10BBD0000FFE089800280CD0079860B107990A98C2
:10BBE00008440021CDE900100898800802906846BA
:10BBF00018DF0BB000BD4FF440508068C0F5EE2256
:10BC0000C0F5F421C2F30C02891AA1F5405100EBF2
:10BC10005100E6E700B58BB004A8FFF7E9FD0898EE
:10BC200000280FD0079878B107990A980844032193
:10BC300000914FF4F421CDE9011008988008039099
:10BC4000684618DF0BB000BD4FF440508068C0F567
:10BC5000EE22C0F5F421C2F30C02891AA1F540517D
:10BC600000EB5100E3E7000070B504000BD00022A8
:10BC70003C210B48FFF730FF094DAD1E2988884253
:10BC800003D00B2070BD0E2070BD3C22044920461D
:10BC9000FEF774FC2888401C2880002070BD00003E
:10BCA00082FF002070B515460A4603281FD00428DD
:10BCB00024D1134C39B1E088A0F57F41FF391DD064
:10BCC000132176DF0DE0284600F002FD08B1FFF7F2
:10BCD0005FF8A069A84211D1012203210948FFF7AA
:10BCE000FDFB00280AD0BDE87040FFF751B80121E4
:10BCF000104600F0ECFF02460121EFE770BD0000A6
:10BD00008C2C00206432002000B587B01422074933
:10BD100001A8FEF733FC05980DF1040C00909CE897
:10BD20000F00FFF7DDFC07B000BD0000B8D807002A
:10BD300070471FB503230093CDE9010190080390DC
:10BD4000684618DF04B010BD1FB501230093CDE98C
:10BD5000010190080390684618DF04B010BD30B5AB
:10BD60008FB005461C216846FEF721FC00249DF893
:10BD70000000019440F018008DF800000394049432
:10BD800005940694A8798DF8360041F23150ADF84B
:10BD900034000C949DF83000142120F0FF008DF841
:10BDA00030009DF8310020F00F00401C20F0F00022
:10BDB00010308DF831009DF8320020F00600801C14
:10BDC00020F0080040F011008DF8320007A8FEF7BF
:10BDD000EEFB0DA807900CA80890ADF824401720A2
:10BDE000ADF82640ADF828000B94A88805F11003A3
:10BDF00007AA6946A2DF0FB030BD000070B505008C
:10BE000004D0287A800703D0102070BD0E2070BDAA
:10BE1000144C6078032803D0042801D0052801D0F1
:10BE2000082070BD6868E1688600A06830448842D8
:10BE300004D94FF0FF30A0600C2070BD00F028FB4B
:10BE40000028FAD1A9683246A368206901F07CF97C
:10BE50000028F2D1A1683144A160E2689142ECD09F
:10BE6000092070BD602C002010B50A46044603214D
:10BE7000104600F02CFF024603212046FFF72EFB60
:10BE8000002803D0BDE81040FEF782BF10BD0000BF
:10BE9000094810B54078072801D0082010BD074890
:10BEA0000068FFF7DDF808B1FEF772FF044880680C
:10BEB000BDE8104000470000602C0020B4D8070007
:10BEC0003432002010B50D4C6078052813D1D4E928
:10BED000020188420FD10620607000F0D9FA0028D4
:10BEE00008D12069E168406800F096F8002801D187
:10BEF0000721617010BD082010BD0000602C0020DB
:10BF0000FEB51F4E1F4C06F11800002507C88DE82E
:10BF10000700A570A58004F12001684601F000F932
:10BF200008B16570FEBD4FF440501649806820315D
:10BF3000C0F5EE224860216AA161C0F5F421C2F388
:10BF40000C02891AA1F5405100EB51000D490E4A2F
:10BF50001831486000210A48FEF7D0FF08B1FEF70B
:10BF600017FF00224FF470113068FFF739F808B15D
:10BF7000FEF70EFF0120A56060700020FEBD0000EE
:10BF8000B4D80700602C002075C4070010B5094C18
:10BF90000820A16801B110BD61780429FBD1A17806
:10BFA000054800F047F810B10021A17010BD05212F
:10BFB000617010BD602C0020B43100202DE9F041EB
:10BFC000134C07466078032805D0042805D00825BF
:10BFD0002846BDE8F08104206070A06808B1082000
:10BFE000F7E700F055FA0500F3D178688600A078ED
:10BFF0008119802901D90920EBE7064AB968104464
:10C000003246FEF7BBFAA0783044A070E0E70000AB
:10C01000602C0020B431002010B50022FFF75CFD39
:10C0200003490988884201D00B2010BD002010BDB3
:10C030004032002070B500250C290ED34318018929
:10C04000044600EB4101581A0A38C2B21948022AC4
:10C05000027002D30A318B4201D2092070BD16480A
:10C06000FEF78CFA4FF010214FF6FF70B1F88020E8
:10C07000824202D02388934219D1B1F882108142C2
:10C0800002D06088884212D120894FF6FE724FF4A8
:10C090004053A8420BD904EB45014989914204D091
:10C0A0009E896D1CB6B2B142F3D1002070BD0B2049
:10C0B00070BD0000882C00204032002030B58FB0C9
:10C0C00005461C216846FEF772FA00249DF8000020
:10C0D000019440F004008DF800000394049405944A
:10C0E0000694A8798DF8360041F23250ADF834004C
:10C0F0000C949DF83000142120F0FF008DF83000E2
:10C100009DF8310020F00F00401C20F0F0001030AE
:10C110008DF831009DF8320020F00600801C20F0E0
:10C12000180040F001008DF8320007A8FEF73FFA32
:10C130000DA807900CA80890ADF824401420ADF885
:10C140002640ADF828000B94A88805F1080307AA3B
:10C150006946A2DF0FB030BD084910B5A1F120003B
:10C16000016102214170C168203000F0AFFF00285A
:10C1700003D0BDE81040FEF70BBE10BD802C0020A0
:10C180000E4910B5A1F118000161022141704FF470
:10C1900040508068C0F5F421C0F5EE20C0F30C00DB
:10C1A000081AA0F540504108044800F08FFF00280D
:10C1B00003D0BDE81040FEF7EBBD10BD782C002089
:10C1C0000149486170470000602C002038B5062501
:10C1D00065F307000094FFF783FA38BD70B58EB0A1
:10C1E0000E4605461C216846FEF7E1F900249DF83D
:10C1F0000000019440F002008DF8000003940494C4
:10C2000005940694A8798DF8360041F23450ADF8C3
:10C2100034000C949DF83000142120F00F00401CD5
:10C2200020F0F00010308DF830009DF8310020F043
:10C23000FF008DF831009DF8320020F00600801CD0
:10C2400020F0180040F001008DF8320007A8FEF73A
:10C25000AEF90DA807900CA808900220ADF82400B4
:10C26000ADF82640ADF828000B96A88805F120030C
:10C2700007AA6946A2DF0EB070BD2DE9F04188B073
:10C280006846FFF7B5FA039800282BD0069A00F508
:10C2900080504FF48051904227D9A2F58050440835
:10C2A0001046039A00EB440687184FF440500D46A1
:10C2B000806801EB440890420ED204F580500422BD
:10C2C0000146FFF741FD00280CD12946042208460B
:10C2D000FFF73AFD002805D1BA1B234641463046F8
:10C2E00000F038F808B0BDE8F081039A0698FFF72F
:10C2F0002BFDF7E730B58FB002A8FFF779FA059864
:10C30000002817D0089A00F580504FF480519042D1
:10C3100016D9A2F58050430810464FF44054059AB0
:10C32000A468059D024400EB430001EB4301AC42CD
:10C3300002D20E200FB030BD121A00F00BF8F9E750
:10C340000BAB032083E80700059880080E900BA82C
:10C3500018DFEFE72DE9F0411C4617460D4606466B
:10C36000FFF7E7FC002818D0B5F5805F07D9234612
:10C37000291B301B1A46FFF7EDFF00280DD13A4666
:10C3800029463046FFF7E0FC002806D13A46294608
:10C390003046BDE8F041FFF7CCBCBDE8F0810000BD
:10C3A00070B542682A48D2E90043D2E90212C0E9D6
:10C3B0000212C0E900430078440701D5840705D183
:10C3C0009C0703D18C0701D1940701D0062070BDD2
:10C3D000204D0B441A44EA60B1F5A04F1ED81C4C06
:10C3E000C3074FF4405104F190040AD08868C0F5A7
:10C3F000EE20904212D31848206018486060184818
:10C4000017E08968C1F5F423C1F5EE21C1F30C01F1
:10C41000591AA1F54051B2EB510F01D90C2070BD52
:10C420001049216010496160800701D50F4800E084
:10C430000F48A0606878012802D00826304670BDF9
:10C4400000F026F80600FAD12168E8688847F5E789
:10C45000A4310020602C002059C1070009BD07004D
:10C460009DBB070081C1070031BD070075BB0700F8
:10C4700011BB070068B5054E01253570052565F32C
:10C4800007000094FFF72CF968BD0000602C002025
:10C490000C4810B5007808B1082010BD0A4C20687F
:10C4A000FEF7DEFD08B1FEF773FC00224FF47011B9
:10C4B0002068FEF795FD041E01D0FEF769FC2046BA
:10C4C00010BD0000602C0020B4D8070010B5104C3F
:10C4D00001202070E088A0F57F41FF3905D01321AD
:10C4E00076DF68B1FEF754FC0AE0A07840B174DF53
:10C4F00008B1FEF74DFC112000F00AFC0020A070EE
:10C50000FEF7B6FE08B1FEF743FC002010BD0000A8
:10C510008C2C002030B54A4D87B000242C702C7133
:10C52000112000F0EEFB122000F0EBFB112000F0D8
:10C53000EFFB122000F0ECFB424800F067FF002800
:10C5400075D14148FFF73CFE00F0AEF800286ED1EF
:10C550003E48FFF789FB3E4A3D49103A002868D023
:10C56000D00608601060684671DF08B1FEF710FC65
:10C570009DF801006946401C8DF80100002070DF25
:10C5800008B1FEF705FC9DF8080032A120F00F006D
:10C59000401C20F0F00010308DF80800072202A89F
:10C5A0007CDF08B1FEF7F4FB00940C20ADF800002E
:10C5B00018200194ADF80200ADF804404FF4C870A3
:10C5C000ADF8060068467ADF08B1FEF7E1FB082007
:10C5D0000094ADF8000021480190214802901B48CA
:10C5E00069463038FEF7B6FE08B1FEF7D1FB1C21D4
:10C5F0006846FDF7DCFF40F6CD40CDE900404FF442
:10C600008040029003208DF80C001648ADF80E40D3
:10C610008DF81040CDE905406846FEF7BBFD08B136
:10C62000FEF7B6FB00F068FEFEF7E0FA002007B068
:10C6300030BD4FF00050086010600120E870A2E7A4
:10C640008C2C00203DB50700A5BC070094320020CB
:10C6500018050050446675546172670085CF070065
:10C6600009D4070079BA07000E4910B54A788C78CA
:10C670000023A24212D0521CD2B24A70022A00D128
:10C680004B70084A4B78183252F823200260086930
:10C69000104420F07F400861012010BD036000209D
:10C6A00010BD0000342C002007480021074A01700B
:10C6B00002F5907002600822C0E90121C1600161A9
:10C6C0004161816108467047AD2C0020D0320020C6
:10C6D000F0B5194A0646916861B355691020691A88
:10C6E00001F00701D2F800700B46012401EBC10CE8
:10C6F00007EB8C0CB44506D1956904FA01F6754038
:10C700000020956104E0491C01F007018D42EDD144
:10C71000491C956901F0070104FA03F31D420AD18F
:10C720009368002B07D05B1E936053685B1C5360BB
:10C730000B46F1E70420F0BDF0330020064920232A
:10C740000A7C0968521E02F0070202EBC20203EBE8
:10C750008202885000207047F033002070B5D0B1BD
:10C76000C9B10F4AD368C3B15B1ED36093685B1C29
:10C7700093605369156803EBC30405EB84060660F8
:10C78000202000EB84005B1C2858086003F00700A1
:10C790005061002070BD0E2070BD042070BD0000EF
:10C7A000F033002010B5E9B100220A60104A536846
:10C7B000E3B1202818D85B1E5360D068401CD060BD
:10C7C0001069136800EBC00403EB84030B600123C2
:10C7D00083409169401C194300F00700916110618A
:10C7E000002010BD0E2010BD0C2010BD042010BD77
:10C7F000F0330020FEB50446087A82070ED000F020
:10C800000302C2F104030022154604E04E683554C9
:10C81000401CC0B2521C9A42F8D30872012000900A
:10C8200048680290087A800801906846FFF7C6FBC6
:10C8300000280BD0022100F04AFA024602212046CD
:10C84000FEF74CFE002801D0FEF7A2FAFEBD000064
:10C85000F8B51A4C207800282ED0206928B100267F
:10C86000E06820B1002526B110E00126F8E7012597
:10C87000F9E7684652DF052803D020B1FEF788FAB1
:10C8800004E0012602E021690098884785B96088A4
:10C89000ADF800006946A06861DF052803D020B12B
:10C8A000FEF776FA04E0012502E0D4E902018847A8
:10C8B000002EDED0002DD6D0F8BD0000B42C002014
:10C8C000054940880A88904204D34988884201D8A3
:10C8D0000120704700207047042C0020800701D001
:10C8E000002070470120704730B51488E51C9D4238
:10C8F00001D90C2030BD02250D5513881C245B1C6A
:10C900009BB21380CC5413885B1C9BB2138001280C
:10C9100007D0022807D0032807D0042807D0072013
:10C9200030BD002004E0012002E0CD5401E00320EE
:10C93000C8541088401C1080002030BD2DE9F047FD
:10C94000DFF8ACA0DAF80C009AF8004080469AF8BC
:10C950000460DAF80890DAF810703AE009EBC405E0
:10C960002A7833E002EB42016B68521C03EBC101F1
:10C97000AB78D2B2934200D100220B78022B02D0C6
:10C98000032B23D11FE0D1F804C00346014603E086
:10C99000614503D00B46C969C1B1F9E7B1B18B421A
:10C9A00005D1C06918B9134F0126BE600027D1F820
:10C9B00000C0C969D96149B10B6863440B6005E0E7
:10C9C0000174C06900E000210028F9D16978914222
:10C9D000C8D1641EE4B2C1D2CAE903078AF8046070
:10C9E000404502D00120BDE8F0870020FBE70000B1
:10C9F000342C0020001001402DE9F04705462F4857
:10CA0000002680460778D0F80C904BE0D8F8080054
:10CA100000EBC70440E002D02846ED691EE0207814
:10CA2000616800EB4002401CC0B201EBC201207003
:10CA3000A278904200D126700A784868012A2DD148
:10CA4000027C5ABB8A684260CA6882600A69C26016
:10CA50004969816198F8041001B146604268D8F8CC
:10CA60001030DFF85CC0D11A21F07F41614502D25D
:10CA70008268114406E0991A826821F07F418A4257
:10CA800002D9511A016000E006604660012186600B
:10CA90000174C66100F0A0FD002DBCD12078617842
:10CAA0008842BCD17F1EFFB2B0D2D8F80C104945E5
:10CAB00002D00120BDE8F0870020FBE7342C0020E5
:10CAC000FFFF7F00334802680021B12A35D00024DF
:10CAD0004FF010204069B0F5F42F02D00020FEF78F
:10CAE00057F94FF080500069B0F5805F02D0002008
:10CAF000FEF74EF9284B294A05210020FEF728FAB7
:10CB000008B1FEF745F927492548C1F80007FEF7A7
:10CB100059FEFEF78FFD98B1FEF79BFD08B1FEF7B9
:10CB200037F984F00100FEF719FD00F091FBFEF7E4
:10CB3000ADFD58B1FEF72CF908E001240160C7E70C
:10CB400084F00100FEF70AFD00F082FB1648006841
:10CB5000C00F0BD00020204304D0FEF7ADFD08B17C
:10CB6000FEF716F9FEF766FD10B106E00120F2E7C8
:10CB70004FF440508068FEF733FDBFF34F8F0B48F2
:10CB800001680B4A01F4E06111430160BFF34F8F6C
:10CB900000BFFDE71C05004039AF0700CC2C00208A
:10CBA0000C0003007C000050100500500CED00E06C
:10CBB0000400FA0570B5144682880E4605462088A2
:10CBC000111D0144921C994201D8FE2A01D90C2062
:10CBD00070BD521C32542088FF21401C80B220803E
:10CBE00031542088401C80B220808119288800F0B0
:10CBF00053FD2188084480B22080AA8842B1A968E8
:10CC000041B13044FDF7BAFC2088A988084420804F
:10CC1000002070BD072070BDF8B50E46017814469F
:10CC20000546012901D1687830B12088821C9A42DA
:10CC30002DD8012902D006E00720F8BD697801440B
:10CC4000891C994223D8181A801E87B2ADF800704B
:10CC50002188B01C084469467DDF0028EDD1287882
:10CC6000022805D1BDF80010B94201D809210AE017
:10CC70000821012805D16878B84202D8ADF8000033
:10CC800001E0ADF80070BDF80000FE2801D90C20CD
:10CC9000F8BD2288401CB0542088401C80B22080FF
:10CCA00031542088401C2080BDF8001008442080AA
:10CCB0000020F8BD31B540F2E73404E0401E00909A
:10CCC0002046FDF7B7FB00980028F7D138BD0828AB
:10CCD0000BD003DC38B106280FD108E00B280AD0AE
:10CCE0000C280AD105E0012070470220704703207C
:10CCF000704704207047042901D0062070470520A2
:10CD000070470321800000F1A040C0F80017704771
:10CD10000121814001480160704700000805005072
:10CD200030B5574C01880022E588A7B019290AD0F0
:10CD30001EDC11293DD008DC022972D0102902D155
:10CD40008088E080A27027B030BD4E4B132903F1DC
:10CD5000180446D01429F6D11A46058A5B8D0021A5
:10CD60009D4200D1214600238088D21D86DF1BE032
:10CD7000512968D00EDC1A297FD01B29E3D1007A13
:10CD80000028E0D1A270E068401EE0604AD0FDF7C4
:10CD90002DFFD8E7522970D05529D4D180790028A9
:10CDA000D1D11321284676DF0028CCD0FDF7F0FF43
:10CDB000C9E78020ADF894003220E0601220FFF730
:10CDC000A7FF012325AA01A9E088AADF08B1FDF782
:10CDD000DFFF207808B9FDF709FF4FF6FF70E0800C
:10CDE000B1E728481022483850F8481F059181883B
:10CDF000ADF8181080798DF81A00D91D01A8FDF73B
:10CE0000BDFB1C22214610A8FDF7B8FB01A80C9021
:10CE10001B4A10A81C320B9007AB852128467FDFE8
:10CE2000C2E70CE01422184901A8FDF7A7FB0598FA
:10CE300001AC009094E80F00FEF752FC83E700215C
:10CE4000284667DFB0E781790029A2D0807B0428DB
:10CE500003D0062801D005289BD102290BD0012040
:10CE60008DF884004FF4C170ADF8880021A92846E0
:10CE7000A8DF99E701E00220F2E700F04FFA93E71C
:10CE80008C2C002094320020E4D80700F0B58BB041
:10CE900001274FF0020E05468DF80CE08DF8127058
:10CEA0000889ADF814004889ADF8160001F10C00AE
:10CEB000002608960690ADF820E007A8ADF822609D
:10CEC00009900C46A98A288808AAA5DF18B1E96A42
:10CED000C9B1884717E09DF81C0010F0010F12D06F
:10CEE000ADF81060288803A9A8DF002812D1217BA3
:10CEF00004F10D00092943D2DFE801F0420E1D23A1
:10CF000026282A402C0040F2FD10ADF81000288899
:10CF100003A9A8DF0BB0F0BD8DF800600DE006227C
:10CF20001DE000BF8DF808700190AA6A6946284686
:10CF300090470020EEE78DF800706289022AF1D256
:10CF4000EDE78DF800E0F0E7032012E0042010E0A8
:10CF500005200EE06089032805D203220821284617
:10CF6000FEF7BCFAD6E7B4F80D00ADF8040018B12E
:10CF700006208DF80000D8E70720FAE70920F8E737
:10CF80000322ECE770B504460B780120314A0A2BE6
:10CF900016D2DFE803F01F243A050D1651563D5A0C
:10CFA000FEF790FF0421FFF792FE0246042123E0E2
:10CFB000FFF78CFA08B1FDF7EBFEFEF769FF28B921
:10CFC00070BDFFF783FA08B1FDF7E2FEBDE87040DF
:10CFD000FFF7FCB8107148680078507170BD0220EE
:10CFE0001071486800780128F8D1FEF7CFFF0221C0
:10CFF000FFF76DFE024602212046FEF76FFA002879
:10D00000ECD0BDE87040FDF7C3BE0320107170BDC9
:10D0100012792046012A07D0022A09D0032AF6D124
:10D02000BDE87040FDF73CBEBDE8704000F04CBA72
:10D03000BDE87040FFF7DEBB5070888810815081DA
:10D0400070BD00205070108170BD20461169FEF740
:10D0500045F9D4E78C2C002006480378012B03D136
:10D06000012901D102210170100001D0FDF790BE0D
:10D0700070470000542C002070B5124C1E46154617
:10D080006078012902D0032914D107E0052811D1C5
:10D0900063697BB13246294604200AE0022809D19F
:10D0A00009484068804703206070636913B13246C5
:10D0B00029469847280003D0BDE87040FDF768BEB8
:10D0C00070BD0000602C00203432002008B50B46F3
:10D0D0000022014603200092FEF708FC08BD000074
:10D0E00070B50D4E00240D487460254604704470E0
:10D0F00084702846FEF7EAFB6D1C0A2DF9D3074918
:10D1000034600020F431746041F82040401C032852
:10D11000FAD3002070BD00001C2C002068300020D5
:10D12000074B1A68032A08D00A600649006841F8CC
:10D130002200521C00201A60704704207047000033
:10D140001C2C00205C310020F8B507461D46164611
:10D150000C460846FFF7C2FB58B16019FFF7BEFB4B
:10D1600038B133462246394601200095FEF7BEFB12
:10D17000F8BD1020F8BD000070B5244C0646002212
:10D18000A078012841D100232146A3700D78022EFA
:10D1900005EB450001EBC00103D0032E35D10D2076
:10D1A0002EE01B484668761C46608968B1EB063F56
:10D1B00015D843606078401E6070681CC0B2207053
:10D1C0000A2801D30A38207005EB450004EBC001A2
:10D1D0001046091DFDF7E8FD2846FEF777FB60784D
:10D1E000002812D0A07800280FD1FEF73BFB0028C2
:10D1F0000BD0112809D0217801EB410104EBC101CA
:10D20000BDE87040091DFDF7CFBD70BD683000203E
:10D210001C2C002070B5012670044FF0E021002581
:10D22000C1F88001084C4010C4F84803C4F8080352
:10D2300066602F20FDF73AF9A660044C2F20256187
:10D24000FDF734F9E57070BD00100140342C00206A
:10D2500010B5064A14210820FDF73AFE002803D035
:10D26000BDE81040FDF794BD10BD0000DC2E00208D
:10D2700010B50121202803DA1D4A8140114004E045
:10D28000402803DAA0F12002914041B1002809DAD8
:10D2900000F00F0101F1E02191F8141D06E042F2C7
:10D2A000010010BD00F1E02191F80014490908299E
:10D2B00014D299B1012911D004290FD005290DD01C
:10D2C0000C4A946800F01F0301219940400944B1C1
:10D2D00052F820300B4342F8203007E042F20200BF
:10D2E00010BD800000F1E020C0F80011002010BD4A
:10D2F000FC06FFBC0C3400200748017821F07E01B9
:10D3000041F00101303121F08001017007214170AD
:10D310001021817070470000A82C002070B5164CB9
:10D320004FF6FF75E088A84201D1082070BDE17872
:10D33000E1B1012308221149A9DF0028F6D1022317
:10D3400000221146E088A9DF0028EFD12A460C21EF
:10D35000E088A7DFA0F54051023905D0082803D0A6
:10D36000A0F540510439E1D1002070BD00231A46D8
:10D370001946A9DF70BD00008C2C0020C8320020A7
:10D380002DE9F0410746806A14468846C8B3002557
:10D3900031E000BFB96A05EB450001EB8006B088BB
:10D3A000801CFE2802D90C20BDE8F0812288401C98
:10D3B00008F8020020881622401C80B2208008F85D
:10D3C00000202088401C80B2208000EB08013088BB
:10D3D00000F062F92188084480B22080B28842B10E
:10D3E000B16871B14044FDF7C9F82088B18808449C
:10D3F00020806D1CEDB297F82C00A842CAD80020FE
:10D40000D2E7FFE70720CFE7FDF7C2BC18B1034919
:10D41000C860002070470E2070470000B42C002028
:10D420001CB5034901910091694660DF1CBD0000F5
:10D43000002C002070B50E460546144614211046F7
:10D44000FDF7B5F8012020800021216121732672AB
:10D45000657205B1A072002070BD10B511B1002039
:10D46000FDF796FCBDE81040FFF7F2B90021024A33
:10D470000846FDF7CDBC00005BD40700FDF776BC85
:10D4800030B409B18C0702D0072030BC7047074C7C
:10D490000125A16062800649636010DF0028F4D195
:10D4A000257030BC1620FFF7E3BE0000B42C00202E
:10D4B0007DD4070018B103490861002070470E2091
:10D4C00070470000B42C002010B588B0044600203E
:10D4D000009001900290039019481A4A40798DF803
:10D4E00000001068926804906846CDE90502087A49
:10D4F0000C2805D003221CE0FDF74AFC08B010BD43
:10D500004868C278016862F31F610191C27941687D
:10D5100062F31F610291C17A806861F31F6003901A
:10D5200004A8FEF73DFF0028E8D00121FFF7CFFB5C
:10D53000024601212046FDF7D1FF0028DCD1DDE7BE
:10D540008C2C0020D8D80700FFF716BE2DE9F84F25
:10D55000204C00256846D4E903B6FFF785F88046DD
:10D56000FFF7ECF90746A946B8F1000F25D00023D4
:10D57000009ACC46E06819E007680146974202D954
:10D58000BA1A026014E0C1F800C0D1F80C80D21BB6
:10D59000C8693B448A46B8F1000F07D0F71827F056
:10D5A0007F47C1E90178CAF81C500D460028E3D135
:10D5B000E0602846FFF720FA04E02846FFF71CFA4F
:10D5C00000B917B15846FEF7BDF984F80490BDE8DC
:10D5D000F88F0000342C00200D4B10B5D96831B104
:10D5E00002680C68A24204D8A21A0A60C161D8601D
:10D5F00010BD0B4603E00B46C969121B21B10C6834
:10D600009442F8D3A41A0C600260C161D86110BDC5
:10D61000342C00202DE9F0411D4DEC68002C35D054
:10D620001C48002700682969B846401A20F07F4648
:10D630002068B04215D82246361A0744E469107CA7
:10D6400068B182F810806B6933B1D2E9050198475F
:10D6500028B1FDF79DFB02E0D2E905108847002CB8
:10D66000E6D16978A878814206D1401CC0B2A87082
:10D67000022801D185F802800548A978183040F8C1
:10D680002170BDE8F0411420FDF700B8BDE8F0813D
:10D69000342C0020041501400870000A4870022054
:10D6A00070470870020A4A70020C8A70000EC87037
:10D6B0000420704738B515494888A0F57F42FF3AE5
:10D6C00023D04A78124C521CD2B24A70237B934228
:10D6D0000AD3091D75DF002817D0A169002914D0CD
:10D6E00001B0BDE83040084700254D70217C29B1CC
:10D6F0003B2176DF10B1A16901B18847616900293A
:10D7000003D08DF800506846884738BD002C0020B3
:10D710004C300020EFF30580C005C00D13D0103849
:10D7200040B2002806DA00F00F0000F1E02090F887
:10D73000140D03E000F1E02090F8000440090228F5
:10D7400003D0062803D00220704700207047012034
:10D75000704742788378521CD2B2934200D10022A3
:10D760000378934201D1002070470A7041684078E5
:10D7700000EB400001EBC00070472DE9FC4116466C
:10D78000DDE90854CDE900541F468046022200F02E
:10D790000CF8002807D1CDE900543B461022314651
:10D7A000404600F002F8BDE8FC812DE9FC5F002650
:10D7B000DDE90C4B994692468E46804627883546D1
:10D7C00030E0D8F80400002200EB850069460068CC
:10D7D000019001A865DF002830D19DF80000504578
:10D7E0001FD10EB1002100E0022122880844111847
:10D7F000594522D846B9521C90B2208009F800E061
:10D800002088401C20800126218801A801EB090204
:10D81000694665DF002811D120889DF80010084472
:10D8200020806D1CB8F80000A842CADC56B12088E0
:10D83000C01B401E80B2FF2802D90C20BDE8FC9F0F
:10D8400009F807000020F9E710B5074C48DF08B1D8
:10D85000FDF79EFAFDF72CFB2078022803D0032861
:10D8600001D00428F2D110BD542C00200100000783
:10D8700002000000000000000000000000000000A6
:10D880002C30002023D1BCEA5F782315DEEF121282
:10D890000000000059D00700000000000000000058
:10D8A0000200000000000000000000000000000076
:10D8B000000000008431002004000000000000008F
:10D8C00000000000000000000000000079D0070008
:10D8D0000000000000000000030000000000000045
:10D8E0000000000005000000000000000000000033
:10D8F000000000000000000018D90700002C0020E4
:10D90000CC0000007CA90700E4D90700CC2C002043
:10D910004C2700008CA90700000000000000000058
:10D9200000000000000000000000000000000000F7
:10D9300000000000000000000000000000000000E7
:10D9400000000000000000000000000000000000D7
:10D9500000000000000000000000000000000000C7
:10D9600000000000000000000000000000000000B7
:10D9700000000000000000000000000000000000A7
:10D980000000000000000000000000000000000097
:10D990000000000000000000000000000000000087
:10D9A00000000000000000000000FFFF0000000079
:10D9B0003200000000000000000000000000000035
:10D9C0000000000000000000000000000000000057
:10D9D0000000000000000000000000000000000047
:04D9E0000090D003E0
:020000041000EA
:0410140000A0070031
:020000041000EA
:0410180000E00700ED
:040000050007A4014B
:00000001FF
